:100000000C942A000C9447000C9447000C94470071
:100010000C9447000C9447000C9447000C94470044
:100020000C9447000C9447000C9447000C94470034
:100030000C9447000C9447000C9447000C94470024
:100040000C9447000C9447000C9447000C94470014
:100050000C94470011241FBECFE5D8E0DEBFCDBF12
:1000600010E0A0E6B0E0E6E6F1E002C005900D92F7
:10007000A636B107D9F710E0A6E6B0E001C01D92A0
:10008000AC36B107E1F70E9449000C94B1000C9422
:100090000000AF92BF92CF92DF92EF92FF920F9348
:1000A0001F93DF93CF9300D000D000D0CDB7DEB741
:1000B000DE011196E0E6F0E086E001900D928150BD
:1000C000E1F789E180BD88E18AB900E010E07E01B6
:1000D0000894E11CF11C0F2EF8E6CF2EF0E0DF2E85
:1000E000F02DAA24BB2401C08501F701E00FF11F08
:1000F0000F5F1F4FD6016D917C91808190E00E942F
:1001000085000530110584F7F0CF0F931F93CF932F
:10011000DF938C01EB018B8181FF1BC082FF0DC03F
:100120002E813F818C819D812817390764F4E881F5
:10013000F9810193F983E88306C0E885F985802F6A
:100140000995009731F48E819F8101969F838E835C
:1001500002C00FEF1FEFC801DF91CF911F910F91E8
:060160000895F894FFCFA2
:0601660031323334350094
:00000001FF
