:100000000C9434000C9451000C9451000C94510049
:100010000C9451000C9451000C9451000C9451001C
:100020000C9451000C9451000C9451000C9451000C
:100030000C9451000C9451000C9451000C945100FC
:100040000C9451000C9451000C941A010C94510022
:100050000C94E7000C9451000C9451000C94510046
:100060000C9451000C94510011241FBECFEFD8E026
:10007000DEBFCDBF11E0A0E0B1E0ECE8F2E002C0ED
:1000800005900D92AA30B107D9F711E0AAE0B1E0CE
:1000900001C01D92AA3DB107E1F70E94B2000C9485
:1000A00044010C9400001F93E82FF92FDF010D90FD
:1000B0000020E9F7AD01415050404E1B5F0B141674
:1000C0001506F4F480E090E066E771E020910A0103
:1000D00030910B011191DB01A20FB31F1C932F5F15
:1000E0003F4F30930B0120930A012436310524F051
:1000F00010920B0110920A0101964817590731F727
:100100008091C00085FF02C01092C6001F91089523
:1001100081E0409110015091110120910E01309128
:100120000F014217530709F480E008950E948800E8
:100130008130B1F42091100130911101F901EE5E8E
:10014000FE4F80812F5F3F4F3093110120931001AC
:100150002436310534F010921101109210010895E7
:1001600080E008951F93CF93DF9378941092C50099
:1001700087E68093C400E1ECF0E088E08083808132
:1001800080648083808180618083808180688083B7
:1001900086E08093C200229AC0E0D1E00E948800ED
:1001A000813071F40E949600182F8A30B9F3CE0185
:1001B0000E945300113311F42A9AF0CF2A98EECFFF
:1001C00083EC99E00197F1F700C00000E7CF1F92A0
:1001D0000F920FB60F9211242F933F938F939F93FB
:1001E000EF93FF9380910C0190910D0120910A01F2
:1001F00030910B018217930791F0FC01EA58FE4FF2
:1002000020812093C600019690930D0180930C01EC
:100210008436910524F010920D0110920C01FF918B
:10022000EF919F918F913F912F910F900FBE0F9063
:100230001F9018951F920F920FB60F9211242F93B3
:100240008F939F93EF93FF9380910E0190910F01F5
:100250002091C600FC01EE5EFE4F20830196909334
:100260000F0180930E018436910524F010920F0146
:1002700010920E01FF91EF919F918F912F910F900E
:0C0280000FBE0F901F901895F894FFCF50
:0A028C0052656365697665640A0037
:00000001FF
