:100000000C9434000C943E000C943E000C943E0082
:100010000C943E000C943E000C943E000C943E0068
:100020000C943E000C943E000C943E000C943E0058
:100030000C943E000C943E000C9440000C945F0025
:100040000C943E000C943E000C943E000C943E0038
:100050000C943E000C943E000C943E000C943E0028
:100060000C943E000C943E0011241FBECFEFD8E04C
:10007000DEBFCDBF0E947E000C948C000C9400006B
:100080001F920F920FB60F9211248F939F93AF93ED
:10009000BF9395B181E0892785B98FE39DE0A3E007
:1000A00081509040A040E1F700C00000BF91AF91A7
:1000B0009F918F910F900FBE0F901F9018951F92D8
:1000C0000F920FB60F9211248F939F93AF93BF930C
:1000D00095B182E0892785B98FE39DE0A3E0815047
:1000E0009040A040E1F700C00000BF91AF919F9108
:1000F0008F910F900FBE0F901F9018958FEF84B9BE
:10010000789482E084BD85E085BD88EC87BD88BD9C
:0C01100086E080936E00FFCFF894FFCFD4
:00000001FF
