:100000000C9434000C9446000C9446000C9446006A
:100010000C9446000C9446000C9446000C94460048
:100020000C9446000C9446000C9446000C94460038
:100030000C9446000C9446000C9446000C94460028
:100040000C94A6000C9446000C9446000C944600B8
:100050000C9446000C9476000C9446000C944600D8
:100060000C9446000C94460011241FBECFEFD8E03C
:10007000DEBFCDBF11E0A0E0B1E001C01D92A43011
:10008000B107E1F70E944E000C942A010C94000085
:10009000EAE7F0E08081806480830895789480E6C8
:1000A0008AB980E884BD94B5906294BD94B593609C
:1000B00094BD91E095BD18BC28B527BD90936E0006
:1000C000ECE7F0E090E49083908191609083EAE720
:1000D000F0E080838081886080838081836080837A
:1000E00082E080937E000E944800FFCF1F920F9213
:1000F0000FB60F9211242F933F934F935F936F93FB
:100100007F938F939F93AF93BF93EF93FF9380E081
:1001100090E0A0E8BEE38093000190930101A093DA
:100120000201B09303010E944800FF91EF91BF913B
:10013000AF919F918F917F916F915F914F913F917F
:100140002F910F900FBE0F901F9018951F920F9236
:100150000FB60F9211242F933F934F935F936F939A
:100160007F938F939F93AF93BF93EF93FF93609190
:1001700000017091010180910201909103010E94A0
:10018000D50068BD88B587BDFF91EF91BF91AF9154
:100190009F918F917F916F915F914F913F912F919F
:1001A0000F900FBE0F901F90189533D088F09F5777
:1001B00090F0B92F9927B751A0F0D1F0660F771FB3
:1001C000881F991F1AF0BA95C9F712C0B13081F093
:1001D0003AD0B1E0089537C0672F782F8827B85FED
:1001E00039F0B93FCCF3869577956795B395D9F7F4
:1001F0003EF490958095709561957F4F8F4F9F4FFE
:10020000089557FD9058440F551F59F05F3F71F006
:100210004795880F97FB991F61F09F3F79F087956D
:100220000895121613061406551FF2CF4695F1DFF6
:1002300008C0161617061806991FF1CF8695710586
:10024000610508940895E894BB2766277727CB01BA
:0802500097F90895F894FFCF1F
:00000001FF
