:100000000C9434000C9449000C9449000C94490061
:100010000C9449000C9449000C9449000C9449003C
:100020000C9449000C9449000C9449000C9449002C
:100030000C9449000C9449000C9449000C9449001C
:100040000C9449000C9449000C9449000C9449000C
:100050000C9449000C9449000C9449000C944900FC
:100060000C9449000C94490011241FBECFEFD8E036
:10007000DEBFCDBF11E0A0E0B1E0E0E2F1E002C000
:1000800005900D92A630B107D9F70E946F000C942D
:100090008E000C940000CF93DF93E82FF92FDF013F
:1000A0000D900020E9F79D01215030402E1B3F0BA1
:1000B000121613068CF4A82FB92F80E090E0E0EC24
:1000C000F0E0C6ECD0E0408145FFFDCF4D91488384
:1000D000019628173907B9F7DF91CF910895CF938B
:1000E000DF9378941092C50087E68093C40088E07F
:1000F0008093C10086E08093C20084E084B9C0E0B0
:10010000D1E0CE010E944B008FE794E8AEE1815030
:100110009040A040E1F700C00000F3CFF894FFCF7B
:060120005361790A0000A2
:00000001FF
