:100000000C9434000C943E000C9440000C943E0080
:100010000C943E000C943E000C943E000C943E0068
:100020000C943E000C943E000C943E000C943E0058
:100030000C943E000C943E000C943E000C943E0048
:100040000C943E000C943E000C943E000C943E0038
:100050000C943E000C943E000C943E000C943E0028
:100060000C943E000C943E0011241FBECFEFD8E04C
:10007000DEBFCDBF0E947C000C949C000C9400005D
:100080001F920F920FB60F9211240F931F932F936D
:100090003F934F935F936F937F938F939F9375B12C
:1000A00015B880E090E041E050E065B19A01082E7B
:1000B00002C0220F331F0A94E2F7262B25B90FEB5B
:1000C00017E229E0015010402040E1F700C0000095
:1000D00001968730910549F775B99F918F917F916E
:1000E0006F915F914F913F912F911F910F910F90C1
:1000F0000FBE0F901F9018958FEF84B915B8E9E6E1
:10010000F0E0808188608083E99A78948FE385B9F4
:100110002FE33DE043E0215030404040E1F700C094
:10012000000015B82FE33DE043E02150304040404F
:0C013000E1F700C00000EBCFF894FFCF17
:00000001FF
