:100000000C9434000C9446000C9446000C9446006A
:100010000C9446000C9446000C9446000C94460048
:100020000C9446000C9446000C9446000C94460038
:100030000C9446000C9446000C9446000C94460028
:100040000C9499000C9446000C9446000C944600C5
:100050000C9446000C9446000C9446000C94460008
:100060000C9446000C94460011241FBECFEFD8E03C
:10007000DEBFCDBF11E0A0E0B1E001C01D92A43011
:10008000B107E1F70E9448000C94A9020C9400000B
:10009000EF92FF920F931F93789480E68AB980E8DD
:1000A00084BD84B5806284BD84B5836084BD81E0F5
:1000B00085BD18BC98B597BD80936E000F2EF0E0FB
:1000C000EF2EF0E0FF2EF0E00F2FF0E01F2FF02DCD
:1000D00083EC99E00197F1F700C000006091000106
:1000E00070910101809102019091030120E030E0C4
:1000F00040E85FE30E94D500262F372F482F592F65
:1001000020930001309301014093020150930301B9
:1001100020E030E048EC52E40E941E021816C4F6BB
:10012000E0920001F092010100930201109303019B
:10013000CFCF1F920F920FB60F9211242F933F93A0
:100140004F935F936F937F938F939F93AF93BF93DF
:10015000EF93FF9360910001709101018091020182
:100160009091030120E030E048EC52E40E94390114
:1001700020E030E04FE753E40E9422020E94A101F8
:1001800068BD88B587BDFF91EF91BF91AF919F91F9
:100190008F917F916F915F914F913F912F910F9030
:1001A0000FBE0F901F9018955058BB27AA270ED04E
:1001B0000BC1FCD030F001D120F031F49F3F11F49D
:1001C0001EF4F1C00EF4E095E7FBE7C0E92F0DD176
:1001D00080F3BA17620773078407950718F071F464
:1001E0009EF525C10EF4E0950B2EBA2FA02D0B0124
:1001F000B90190010C01CA01A0011124FF27591B6C
:1002000099F0593F50F4503E68F11A16F040A22F71
:10021000232F342F4427585FF3CF469537952795E2
:10022000A795F0405395C9F77EF41F16BA0B620BE1
:10023000730B840BBAF09150A1F0FF0FBB1F661F28
:10024000771F881FC2F70EC0BA0F621F731F841F6B
:1002500048F4879577956795B795F7959E3F08F091
:10026000B3CF9395880F08F09927EE0F9795879550
:1002700008950CD0A9C0A1D040F098D030F021F45E
:100280005F3F19F08AC05111D3C08DC0AED098F332
:100290009923C9F35523B1F3951B550BBB27AA2707
:1002A00062177307840738F09F5F5F4F220F331F79
:1002B000441FAA1FA9F333D00E2E3AF0E0E830D045
:1002C00091505040E695001CCAF729D0FE2F27D048
:1002D000660F771F881FBB1F261737074807AB0716
:1002E000B0E809F0BB0B802DBF01FF2793585F4F8B
:1002F0002AF09E3F510568F050C09AC05F3FECF372
:10030000983EDCF3869577956795B795F7959F5F4F
:10031000C9F7880F911D9695879597F90895E1E0A3
:10032000660F771F881FBB1F621773078407BA0702
:1003300020F0621B730B840BBA0BEE1F88F7E0955D
:1003400008955BD088F09F5790F0B92F9927B75147
:10035000A0F0D1F0660F771F881F991F1AF0BA9589
:10036000C9F712C0B13081F062D0B1E008955FC02A
:10037000672F782F8827B85F39F0B93FCCF386957F
:1003800077956795B395D9F73EF4909580957095DC
:1003900061957F4F8F4F9F4F089597F99F6780E832
:1003A00070E060E008959FEF80EC089500240A94C7
:1003B0001616170618060906089500240A94121640
:1003C0001306140605060895092E0394000C11F473
:1003D000882352F0BB0F40F4BF2B11F460FF04C020
:1003E0006F5F7F4F8F4F9F4F089557FD9058440F79
:1003F000551F59F05F3F71F04795880F97FB991F84
:1004000061F09F3F79F08795089512161306140640
:10041000551FF2CF4695F1DF08C0161617061806CD
:10042000991FF1CF86957105610508940895E894A8
:10043000BB2766277727CB0197F9089566D008F484
:100440008FEF08950BD0C0CFB1DF28F0B6DF18F0E2
:10045000952309F0A2CFA7CF1124EACFC6DFA0F3DE
:10046000959FD1F3950F50E0551F629FF001729F49
:10047000BB27F00DB11D639FAA27F00DB11DAA1F68
:10048000649F6627B00DA11D661F829F2227B00DB5
:10049000A11D621F739FB00DA11D621F839FA00D40
:1004A000611D221F749F3327A00D611D231F849F90
:1004B000600D211D822F762F6A2F11249F575040E7
:1004C0008AF0E1F088234AF0EE0FFF1FBB1F661F82
:1004D000771F881F91505040A9F79E3F510570F03B
:1004E0005CCFA6CF5F3FECF3983EDCF38695779523
:1004F0006795B795F795E7959F5FC1F7FE2B880F36
:10050000911D9695879597F90895990F0008550FB5
:10051000AA0BE0E8FEEF16161706E807F907C0F089
:1005200012161306E407F50798F0621B730B840B91
:10053000950B39F40A2661F0232B242B252B21F46B
:1005400008950A2609F4A140A6958FEF811D811D0B
:060550000895F894FFCFAE
:00000001FF
