:100000000C9434000C9451000C9451000C94510049
:100010000C9451000C9451000C9451000C9451001C
:100020000C9451000C9451000C9451000C9451000C
:100030000C9451000C9451000C9451000C945100FC
:100040000C9451000C9451000C9451000C945100EC
:100050000C94AC000C9451000C9451000C94510081
:100060000C9451000C94510011241FBECFEFD8E026
:10007000DEBFCDBF11E0A0E0B1E0E4ECF1E002C0F2
:1000800005900D92AC30B107D9F715E0ACE0B1E0C6
:1000900001C01D92A031B107E1F70E9489000C94C4
:1000A000E0000C9400001F93E82FF92FDF010D9062
:1000B0000020E9F7AD01415050404E1B5F0B141674
:1000C0001506FCF480E090E060E171E020910C0105
:1000D00030910D011191DB01A20FB31F1C932F5F13
:1000E0003F4F30930D0120930C01B4E020303B07CB
:1000F00024F010920D0110920C0101964817590737
:1001000029F78091C00085FF02C01092C6001F91A0
:100110000895CF93DF9378941092C50087E680937B
:10012000C400E1ECF0E088E080838081806480831B
:1001300086E08093C200C0E0D1E0CE0161E070E0D3
:100140000E9453008FE79AE1A6E081509040A040C2
:10015000E1F700C00000F1CF1F920F920FB60F928F
:1001600011242F933F938F939F93EF93FF9380914D
:100170000E0190910F0120910C0130910D01821719
:10018000930799F0FC01E05FFE4F20812093C600A9
:10019000019690930F0180930E0124E08030920726
:1001A00024F010920F0110920E01FF91EF919F9198
:1001B0008F913F912F910F900FBE0F901F90189528
:0401C000F894FFCFE1
:0C01C4004D65737361676532320A0000FC
:00000001FF
