:100000000C9434000C9451000C9451000C94510049
:100010000C9451000C9451000C9451000C9451001C
:100020000C9451000C9451000C9451000C9451000C
:100030000C9451000C9451000C9451000C945100FC
:100040000C9451000C9451000C9451000C945100EC
:100050000C94AC000C9451000C9451000C94510081
:100060000C9451000C94510011241FBECFEFD8E026
:10007000DEBFCDBF11E0A0E0B1E0E4ECF1E002C0F2
:1000800005900D92AA30B107D9F715E0AAE0B1E0CA
:1000900001C01D92AE30B107E1F70E9489000C94B7
:1000A000E0000C9400001F93E82FF92FDF010D9062
:1000B0000020E9F7AD01415050404E1B5F0B141674
:1000C0001506FCF480E090E06EE071E020910A01FA
:1000D00030910B011191DB01A20FB31F1C932F5F15
:1000E0003F4F30930B0120930A01B4E020303B07CF
:1000F00024F010920B0110920A010196481759073B
:1001000029F78091C00085FF02C01092C6001F91A0
:100110000895CF93DF9378941092C50087E680937B
:10012000C400E1ECF0E088E080838081806480831B
:1001300086E08093C200C0E0D1E0CE0161E070E0D3
:100140000E9453008FE39DE0A3E081509040A040C7
:10015000E1F700C00000F1CF1F920F920FB60F928F
:1001600011242F933F938F939F93EF93FF9380914D
:100170000C0190910D0120910A0130910B01821721
:10018000930799F0FC01E25FFE4F20812093C600A7
:10019000019690930D0180930C0124E08130920729
:1001A00024F010920D0110920C01FF91EF919F919C
:1001B0008F913F912F910F900FBE0F901F90189528
:0401C000F894FFCFE1
:0A01C4004D6573736167650A000062
:00000001FF
