:100000000C9434000C9446000C9446000C9446006A
:100010000C9446000C9446000C9446000C94460048
:100020000C9446000C9446000C9446000C94460038
:100030000C9446000C9446000C9446000C94460028
:100040000C94AA000C9446000C9446000C944600B4
:100050000C9446000C9476000C9446000C944600D8
:100060000C9446000C94460011241FBECFEFD8E03C
:10007000DEBFCDBF11E0A0E0B1E001C01D92A43011
:10008000B107E1F70E944E000C946B010C94000044
:10009000EAE7F0E08081806480830895789480E6C8
:1000A0008AB980E884BD94B5906294BD94B593609C
:1000B00094BD91E095BD18BC28B527BD90936E0006
:1000C000ECE7F0E090E49083908191609083EAE720
:1000D000F0E080838081886080838081836080837A
:1000E00082E080937E000E944800FFCF1F920F9213
:1000F0000FB60F9211242F933F934F935F936F93FB
:100100007F938F939F93AF93BF93EF93FF936091F0
:1001100078007091790080E090E00E940501609382
:1001200000017093010180930201909303010E94EA
:100130004800FF91EF91BF91AF919F918F917F9177
:100140006F915F914F913F912F910F900FBE0F9044
:100150001F9018951F920F920FB60F9211242F9394
:100160003F934F935F936F937F938F939F93AF933F
:10017000BF93EF93FF936091000170910101809113
:100180000201909103010E94D90068BD88B587BD26
:10019000FF91EF91BF91AF919F918F917F916F915F
:1001A0005F914F913F912F910F900FBE0F901F9035
:1001B000189570D088F09F5790F0B92F9927B751B4
:1001C000A0F0D1F0660F771F881F991F1AF0BA951B
:1001D000C9F712C0B13081F077D0B1E0089574C092
:1001E000672F782F8827B85F39F0B93FCCF3869511
:1001F00077956795B395D9F73EF49095809570956E
:1002000061957F4F8F4F9F4F0895E89409C097FBEA
:100210003EF490958095709561957F4F8F4F9F4FDD
:100220009923A9F0F92F96E9BB279395F695879521
:1002300077956795B795F111F8CFFAF4BB0F11F4E4
:1002400060FF1BC06F5F7F4F8F4F9F4F16C088238B
:1002500011F096E911C0772321F09EE8872F762FC1
:1002600005C0662371F096E8862F70E060E02AF002
:100270009A95660F771F881FDAF7880F96958795EE
:1002800097F9089557FD9058440F551F59F05F3F57
:1002900071F04795880F97FB991F61F09F3F79F0A8
:1002A00087950895121613061406551FF2CF46952A
:1002B000F1DF08C0161617061806991FF1CF8695AC
:1002C0007105610508940895E894BB276627772790
:0A02D000CB0197F90895F894FFCFD1
:00000001FF
