:100000000C9434000C9446000C9446000C9446006A
:100010000C9446000C9446000C9446000C94460048
:100020000C9446000C9446000C9446000C94460038
:100030000C9446000C9446000C9448000C947000FC
:100040000C9446000C9446000C9446000C94460018
:100050000C9446000C9446000C9446000C94460008
:100060000C9446000C94460011241FBECFEFD8E03C
:10007000DEBFCDBF11E0A0E0B1E001C01D92A43011
:10008000B107E1F70E9498000C94A6000C940000C0
:100090001F920F920FB60F9211242F933F938F93BD
:1000A0009F9380910001909101019C012F5F3F4F30
:1000B00030930101209300018536910544F095B1FC
:1000C00081E0892785B910920101109200019F916A
:1000D0008F913F912F910F900FBE0F901F90189509
:1000E0001F920F920FB60F9211242F933F938F936D
:1000F0009F9380910201909103019C012F5F3F4FDC
:1001000030930301209302018333910544F095B1AC
:1001100082E0892785B910920301109202019F9114
:100120008F913F912F910F900FBE0F901F901895B8
:100130008FEF84B9789482E084BD85E085BD83EC3F
:1001400087BD88BD86E080936E00FFCFF894FFCF17
:00000001FF
