:100000000C9434000C943E000C943E000C943E0082
:100010000C943E000C943E000C943E000C943E0068
:100020000C943E000C943E000C943E000C943E0058
:100030000C943E000C943E000C943E000C943E0048
:100040000C943E000C943E000C943E000C943E0038
:100050000C943E000C943E000C943E000C943E0028
:100060000C943E000C943E0011241FBECFEFD8E04C
:10007000DEBFCDBF0E9440000C9458000C940000DD
:100080008FEF84B915B88FE39DE0A3E081509040D5
:10009000A040E1F700C000002D9A8FE794E8AEE1A0
:1000A00081509040A040E1F700C0000015B8EBCFB0
:0400B000F894FFCFF2
:00000001FF
