:1000000012C02CC02BC02AC029C028C027C026C0BF
:1000100025C024C023C022C021C020C01FC01EC0D4
:100020001DC01CC01BC011241FBECFE5D4E0DEBF25
:10003000CDBF10E0A0E6B0E0E0E3F1E002C0059043
:100040000D92A636B107D9F710E0A6E6B0E001C0E0
:100050001D92AC36B107E1F702D068C0D1CFAF92A4
:10006000BF92CF92DF92EF92FF920F931F93DF9395
:10007000CF9300D000D000D0CDB7DEB7DE0111960F
:10008000E0E6F0E086E001900D928150E1F789E131
:1000900080BD88E18BB900E010E07E010894E11C8E
:1000A000F11C0F2EF8E6CF2EF0E0DF2EF02DAA2463
:1000B000BB2401C08501F701E00FF11F0F5F1F4F47
:1000C000D6016D917C91808190E004D005301105BE
:1000D0008CF7F1CF0F931F93CF93DF938C01EB013C
:1000E0008B8181FF1BC082FF0DC02E813F818C81DF
:1000F0009D812817390764F4E881F9810193F98318
:10010000E88306C0E885F985802F0995009731F4CA
:100110008E819F8101969F838E8302C00FEF1FEF18
:10012000C801DF91CF911F910F910895F894FFCFEF
:06013000313233343500CA
:00000001FF
